{
  "_format": "hh-sol-artifact-1",
  "contractName": "CoinchainStaking",
  "sourceName": "contracts/CoinchainStaking.sol",
  "abi": [
    {
      "inputs": [
        {
          "internalType": "address",
          "name": "_CCHAddress",
          "type": "address"
        },
        {
          "internalType": "address",
          "name": "admin",
          "type": "address"
        },
        {
          "internalType": "address",
          "name": "operator",
          "type": "address"
        },
        {
          "internalType": "address",
          "name": "manager",
          "type": "address"
        }
      ],
      "stateMutability": "nonpayable",
      "type": "constructor"
    },
    {
      "anonymous": false,
      "inputs": [
        {
          "indexed": true,
          "internalType": "bytes32",
          "name": "role",
          "type": "bytes32"
        },
        {
          "indexed": true,
          "internalType": "bytes32",
          "name": "previousAdminRole",
          "type": "bytes32"
        },
        {
          "indexed": true,
          "internalType": "bytes32",
          "name": "newAdminRole",
          "type": "bytes32"
        }
      ],
      "name": "RoleAdminChanged",
      "type": "event"
    },
    {
      "anonymous": false,
      "inputs": [
        {
          "indexed": true,
          "internalType": "bytes32",
          "name": "role",
          "type": "bytes32"
        },
        {
          "indexed": true,
          "internalType": "address",
          "name": "account",
          "type": "address"
        },
        {
          "indexed": true,
          "internalType": "address",
          "name": "sender",
          "type": "address"
        }
      ],
      "name": "RoleGranted",
      "type": "event"
    },
    {
      "anonymous": false,
      "inputs": [
        {
          "indexed": true,
          "internalType": "bytes32",
          "name": "role",
          "type": "bytes32"
        },
        {
          "indexed": true,
          "internalType": "address",
          "name": "account",
          "type": "address"
        },
        {
          "indexed": true,
          "internalType": "address",
          "name": "sender",
          "type": "address"
        }
      ],
      "name": "RoleRevoked",
      "type": "event"
    },
    {
      "anonymous": false,
      "inputs": [
        {
          "indexed": true,
          "internalType": "uint256",
          "name": "depositId",
          "type": "uint256"
        },
        {
          "indexed": true,
          "internalType": "address",
          "name": "user",
          "type": "address"
        },
        {
          "indexed": false,
          "internalType": "uint256",
          "name": "amount",
          "type": "uint256"
        },
        {
          "indexed": true,
          "internalType": "uint256",
          "name": "yieldIdConfig",
          "type": "uint256"
        },
        {
          "indexed": false,
          "internalType": "uint256",
          "name": "depositTime",
          "type": "uint256"
        }
      ],
      "name": "TokensDeposited",
      "type": "event"
    },
    {
      "anonymous": false,
      "inputs": [],
      "name": "TokensMinted",
      "type": "event"
    },
    {
      "anonymous": false,
      "inputs": [
        {
          "indexed": true,
          "internalType": "uint256",
          "name": "depositId",
          "type": "uint256"
        }
      ],
      "name": "TokensWithdrawn",
      "type": "event"
    },
    {
      "inputs": [],
      "name": "CCH",
      "outputs": [
        {
          "internalType": "address",
          "name": "",
          "type": "address"
        }
      ],
      "stateMutability": "view",
      "type": "function"
    },
    {
      "inputs": [],
      "name": "DEFAULT_ADMIN_ROLE",
      "outputs": [
        {
          "internalType": "bytes32",
          "name": "",
          "type": "bytes32"
        }
      ],
      "stateMutability": "view",
      "type": "function"
    },
    {
      "inputs": [],
      "name": "MANAGER_ROLE",
      "outputs": [
        {
          "internalType": "bytes32",
          "name": "",
          "type": "bytes32"
        }
      ],
      "stateMutability": "view",
      "type": "function"
    },
    {
      "inputs": [],
      "name": "OPERATOR_ROLE",
      "outputs": [
        {
          "internalType": "bytes32",
          "name": "",
          "type": "bytes32"
        }
      ],
      "stateMutability": "view",
      "type": "function"
    },
    {
      "inputs": [
        {
          "internalType": "uint256",
          "name": "depositId",
          "type": "uint256"
        }
      ],
      "name": "calculatePendingRewards",
      "outputs": [
        {
          "internalType": "uint256",
          "name": "rewards",
          "type": "uint256"
        }
      ],
      "stateMutability": "view",
      "type": "function"
    },
    {
      "inputs": [
        {
          "components": [
            {
              "internalType": "uint256",
              "name": "depositId",
              "type": "uint256"
            },
            {
              "components": [
                {
                  "internalType": "address",
                  "name": "user",
                  "type": "address"
                },
                {
                  "internalType": "uint256",
                  "name": "amount",
                  "type": "uint256"
                },
                {
                  "internalType": "uint256",
                  "name": "yieldConfigId",
                  "type": "uint256"
                },
                {
                  "internalType": "uint256",
                  "name": "depositTime",
                  "type": "uint256"
                }
              ],
              "internalType": "struct CoinchainStaking.DepositData",
              "name": "data",
              "type": "tuple"
            }
          ],
          "internalType": "struct CoinchainStaking.Deposit[]",
          "name": "_deposits",
          "type": "tuple[]"
        }
      ],
      "name": "deposit",
      "outputs": [],
      "stateMutability": "nonpayable",
      "type": "function"
    },
    {
      "inputs": [
        {
          "internalType": "uint256",
          "name": "",
          "type": "uint256"
        }
      ],
      "name": "deposits",
      "outputs": [
        {
          "internalType": "address",
          "name": "user",
          "type": "address"
        },
        {
          "internalType": "uint256",
          "name": "amount",
          "type": "uint256"
        },
        {
          "internalType": "uint256",
          "name": "yieldConfigId",
          "type": "uint256"
        },
        {
          "internalType": "uint256",
          "name": "depositTime",
          "type": "uint256"
        }
      ],
      "stateMutability": "view",
      "type": "function"
    },
    {
      "inputs": [
        {
          "internalType": "address",
          "name": "_user",
          "type": "address"
        }
      ],
      "name": "getDepositsByUser",
      "outputs": [
        {
          "internalType": "uint256[]",
          "name": "",
          "type": "uint256[]"
        }
      ],
      "stateMutability": "view",
      "type": "function"
    },
    {
      "inputs": [
        {
          "internalType": "bytes32",
          "name": "role",
          "type": "bytes32"
        }
      ],
      "name": "getRoleAdmin",
      "outputs": [
        {
          "internalType": "bytes32",
          "name": "",
          "type": "bytes32"
        }
      ],
      "stateMutability": "view",
      "type": "function"
    },
    {
      "inputs": [
        {
          "internalType": "bytes32",
          "name": "role",
          "type": "bytes32"
        },
        {
          "internalType": "uint256",
          "name": "index",
          "type": "uint256"
        }
      ],
      "name": "getRoleMember",
      "outputs": [
        {
          "internalType": "address",
          "name": "",
          "type": "address"
        }
      ],
      "stateMutability": "view",
      "type": "function"
    },
    {
      "inputs": [
        {
          "internalType": "bytes32",
          "name": "role",
          "type": "bytes32"
        }
      ],
      "name": "getRoleMemberCount",
      "outputs": [
        {
          "internalType": "uint256",
          "name": "",
          "type": "uint256"
        }
      ],
      "stateMutability": "view",
      "type": "function"
    },
    {
      "inputs": [
        {
          "internalType": "address",
          "name": "_account",
          "type": "address"
        }
      ],
      "name": "grantManagerRole",
      "outputs": [],
      "stateMutability": "nonpayable",
      "type": "function"
    },
    {
      "inputs": [
        {
          "internalType": "address",
          "name": "_account",
          "type": "address"
        }
      ],
      "name": "grantOperatorRole",
      "outputs": [],
      "stateMutability": "nonpayable",
      "type": "function"
    },
    {
      "inputs": [
        {
          "internalType": "bytes32",
          "name": "role",
          "type": "bytes32"
        },
        {
          "internalType": "address",
          "name": "account",
          "type": "address"
        }
      ],
      "name": "grantRole",
      "outputs": [],
      "stateMutability": "nonpayable",
      "type": "function"
    },
    {
      "inputs": [
        {
          "internalType": "bytes32",
          "name": "role",
          "type": "bytes32"
        },
        {
          "internalType": "address",
          "name": "account",
          "type": "address"
        }
      ],
      "name": "hasRole",
      "outputs": [
        {
          "internalType": "bool",
          "name": "",
          "type": "bool"
        }
      ],
      "stateMutability": "view",
      "type": "function"
    },
    {
      "inputs": [],
      "name": "mint",
      "outputs": [],
      "stateMutability": "nonpayable",
      "type": "function"
    },
    {
      "inputs": [],
      "name": "mintAllowance",
      "outputs": [
        {
          "internalType": "uint256",
          "name": "",
          "type": "uint256"
        }
      ],
      "stateMutability": "view",
      "type": "function"
    },
    {
      "inputs": [
        {
          "internalType": "bytes32",
          "name": "role",
          "type": "bytes32"
        },
        {
          "internalType": "address",
          "name": "account",
          "type": "address"
        }
      ],
      "name": "renounceRole",
      "outputs": [],
      "stateMutability": "nonpayable",
      "type": "function"
    },
    {
      "inputs": [
        {
          "internalType": "address",
          "name": "_account",
          "type": "address"
        }
      ],
      "name": "revokeManagaerRole",
      "outputs": [],
      "stateMutability": "nonpayable",
      "type": "function"
    },
    {
      "inputs": [
        {
          "internalType": "address",
          "name": "_account",
          "type": "address"
        }
      ],
      "name": "revokeOperatorRole",
      "outputs": [],
      "stateMutability": "nonpayable",
      "type": "function"
    },
    {
      "inputs": [
        {
          "internalType": "bytes32",
          "name": "role",
          "type": "bytes32"
        },
        {
          "internalType": "address",
          "name": "account",
          "type": "address"
        }
      ],
      "name": "revokeRole",
      "outputs": [],
      "stateMutability": "nonpayable",
      "type": "function"
    },
    {
      "inputs": [
        {
          "internalType": "uint256",
          "name": "yieldConfigId",
          "type": "uint256"
        },
        {
          "components": [
            {
              "internalType": "uint256",
              "name": "lockupTime",
              "type": "uint256"
            },
            {
              "internalType": "uint256",
              "name": "rate",
              "type": "uint256"
            }
          ],
          "internalType": "struct CoinchainStaking.YieldConfig",
          "name": "config",
          "type": "tuple"
        }
      ],
      "name": "setYieldConfig",
      "outputs": [],
      "stateMutability": "nonpayable",
      "type": "function"
    },
    {
      "inputs": [
        {
          "internalType": "bytes4",
          "name": "interfaceId",
          "type": "bytes4"
        }
      ],
      "name": "supportsInterface",
      "outputs": [
        {
          "internalType": "bool",
          "name": "",
          "type": "bool"
        }
      ],
      "stateMutability": "view",
      "type": "function"
    },
    {
      "inputs": [
        {
          "internalType": "uint256",
          "name": "depositId",
          "type": "uint256"
        }
      ],
      "name": "withdraw",
      "outputs": [],
      "stateMutability": "nonpayable",
      "type": "function"
    },
    {
      "inputs": [
        {
          "internalType": "uint256",
          "name": "depositId",
          "type": "uint256"
        }
      ],
      "name": "withdrawNoReward",
      "outputs": [],
      "stateMutability": "nonpayable",
      "type": "function"
    },
    {
      "inputs": [
        {
          "internalType": "uint256",
          "name": "",
          "type": "uint256"
        }
      ],
      "name": "yieldConfigs",
      "outputs": [
        {
          "internalType": "uint256",
          "name": "lockupTime",
          "type": "uint256"
        },
        {
          "internalType": "uint256",
          "name": "rate",
          "type": "uint256"
        }
      ],
      "stateMutability": "view",
      "type": "function"
    }
  ],
  "bytecode": "0x60806040523480156200001157600080fd5b506040516200364c3803806200364c833981810160405281019062000037919062000403565b83600360006101000a81548173ffffffffffffffffffffffffffffffffffffffff021916908373ffffffffffffffffffffffffffffffffffffffff1602179055506000600281905550620000956000801b846200010360201b60201c565b620000c77f97667070c54ef182b0f5858b034beac1b6f3089aa2d3188bb1e8929f4fa9b929836200010360201b60201c565b620000f97f241ecf16d79d0f8dbfb92cbc07fe17840425976cf0667f022fe9877caa831b08826200010360201b60201c565b5050505062000475565b6200011582826200011960201b60201c565b5050565b6200013082826200016160201b620017341760201c565b6200015c81600160008581526020019081526020016000206200025260201b620018141790919060201c565b505050565b6200017382826200028a60201b60201c565b6200024e57600160008084815260200190815260200160002060000160008373ffffffffffffffffffffffffffffffffffffffff1673ffffffffffffffffffffffffffffffffffffffff16815260200190815260200160002060006101000a81548160ff021916908315150217905550620001f3620002f460201b60201c565b73ffffffffffffffffffffffffffffffffffffffff168173ffffffffffffffffffffffffffffffffffffffff16837f2f8788117e7eff1d82e926ec794901d17c78024a50270940304540a733656f0d60405160405180910390a45b5050565b600062000282836000018373ffffffffffffffffffffffffffffffffffffffff1660001b620002fc60201b60201c565b905092915050565b600080600084815260200190815260200160002060000160008373ffffffffffffffffffffffffffffffffffffffff1673ffffffffffffffffffffffffffffffffffffffff16815260200190815260200160002060009054906101000a900460ff16905092915050565b600033905090565b60006200031083836200037660201b60201c565b6200036b57826000018290806001815401808255809150506001900390600052602060002001600090919091909150558260000180549050836001016000848152602001908152602001600020819055506001905062000370565b600090505b92915050565b600080836001016000848152602001908152602001600020541415905092915050565b600080fd5b600073ffffffffffffffffffffffffffffffffffffffff82169050919050565b6000620003cb826200039e565b9050919050565b620003dd81620003be565b8114620003e957600080fd5b50565b600081519050620003fd81620003d2565b92915050565b6000806000806080858703121562000420576200041f62000399565b5b60006200043087828801620003ec565b94505060206200044387828801620003ec565b93505060406200045687828801620003ec565b92505060606200046987828801620003ec565b91505092959194509250565b6131c780620004856000396000f3fe608060405234801561001057600080fd5b506004361061018e5760003560e01c806391d14854116100de578063ca15c87311610097578063d547741f11610071578063d547741f146104a7578063dc9d7683146104c3578063ec87621c146104df578063f5b541a6146104fd5761018e565b8063ca15c8731461043d578063ca3e7f261461046d578063ce6bf86f146104895761018e565b806391d1485414610354578063a217fddf14610384578063b02c43d0146103a2578063b219f7d7146103d5578063b6ed7d62146103f1578063c3dece00146104215761018e565b80632f2ff15d1161014b5780636fc74e96116101255780636fc74e96146102a7578063802d9f7a146102d857806387e696c1146102f45780639010d07c146103245761018e565b80632f2ff15d1461025157806336568abe1461026d578063396876bd146102895761018e565b806301ffc9a7146101935780631249c58b146101c3578063248a9ca3146101cd57806326e885e3146101fd57806327ac0c58146102195780632e1a7d4d14610235575b600080fd5b6101ad60048036038101906101a891906120bb565b61051b565b6040516101ba9190612103565b60405180910390f35b6101cb610595565b005b6101e760048036038101906101e29190612154565b610661565b6040516101f49190612190565b60405180910390f35b61021760048036038101906102129190612209565b610680565b005b610233600480360381019061022e9190612209565b6106ad565b005b61024f600480360381019061024a919061226c565b6106da565b005b61026b60048036038101906102669190612299565b610a3c565b005b61028760048036038101906102829190612299565b610a5d565b005b610291610ae0565b60405161029e91906122e8565b60405180910390f35b6102c160048036038101906102bc919061226c565b610ae6565b6040516102cf929190612303565b60405180910390f35b6102f260048036038101906102ed919061226c565b610b0a565b005b61030e60048036038101906103099190612209565b610dd7565b60405161031b91906123ea565b60405180910390f35b61033e6004803603810190610339919061240c565b610e27565b60405161034b919061245b565b60405180910390f35b61036e60048036038101906103699190612299565b610e56565b60405161037b9190612103565b60405180910390f35b61038c610ec0565b6040516103999190612190565b60405180910390f35b6103bc60048036038101906103b7919061226c565b610ec7565b6040516103cc9493929190612476565b60405180910390f35b6103ef60048036038101906103ea9190612209565b610f17565b005b61040b6004803603810190610406919061226c565b610f44565b60405161041891906122e8565b60405180910390f35b61043b600480360381019061043691906124df565b611043565b005b61045760048036038101906104529190612154565b6110ee565b60405161046491906122e8565b60405180910390f35b61048760048036038101906104829190612584565b611112565b005b610491611678565b60405161049e919061245b565b60405180910390f35b6104c160048036038101906104bc9190612299565b61169e565b005b6104dd60048036038101906104d89190612209565b6116bf565b005b6104e76116ec565b6040516104f49190612190565b60405180910390f35b610505611710565b6040516105129190612190565b60405180910390f35b60007f5a05180f000000000000000000000000000000000000000000000000000000007bffffffffffffffffffffffffffffffffffffffffffffffffffffffff1916827bffffffffffffffffffffffffffffffffffffffffffffffffffffffff1916148061058e575061058d82611844565b5b9050919050565b7f97667070c54ef182b0f5858b034beac1b6f3089aa2d3188bb1e8929f4fa9b9296105bf816118be565b600060025490506000600281905550600360009054906101000a900473ffffffffffffffffffffffffffffffffffffffff1673ffffffffffffffffffffffffffffffffffffffff166340c10f1933836040518363ffffffff1660e01b815260040161062b9291906125d1565b600060405180830381600087803b15801561064557600080fd5b505af1158015610659573d6000803e3d6000fd5b505050505050565b6000806000838152602001908152602001600020600101549050919050565b6106aa7f241ecf16d79d0f8dbfb92cbc07fe17840425976cf0667f022fe9877caa831b0882610a3c565b50565b6106d77f97667070c54ef182b0f5858b034beac1b6f3089aa2d3188bb1e8929f4fa9b92982610a3c565b50565b7f97667070c54ef182b0f5858b034beac1b6f3089aa2d3188bb1e8929f4fa9b929610704816118be565b6000600460008481526020019081526020016000206040518060800160405290816000820160009054906101000a900473ffffffffffffffffffffffffffffffffffffffff1673ffffffffffffffffffffffffffffffffffffffff1673ffffffffffffffffffffffffffffffffffffffff16815260200160018201548152602001600282015481526020016003820154815250509050600073ffffffffffffffffffffffffffffffffffffffff16816000015173ffffffffffffffffffffffffffffffffffffffff16141561080e576040517f08c379a000000000000000000000000000000000000000000000000000000000815260040161080590612657565b60405180910390fd5b80606001514261081e91906126a6565b600660008360400151815260200190815260200160002060000154111561087a576040517f08c379a00000000000000000000000000000000000000000000000000000000081526004016108719061274c565b60405180910390fd5b61088383610f44565b60026000828254610894919061276c565b925050819055506108f08360056000846000015173ffffffffffffffffffffffffffffffffffffffff1673ffffffffffffffffffffffffffffffffffffffff1681526020019081526020016000206118d290919063ffffffff16565b6108f957600080fd5b60046000848152602001908152602001600020600080820160006101000a81549073ffffffffffffffffffffffffffffffffffffffff02191690556001820160009055600282016000905560038201600090555050827f9c6393f251205f9e03559951cab4c9ae71767b6174f77944a5b0c2fa51fbda9f60405160405180910390a2600360009054906101000a900473ffffffffffffffffffffffffffffffffffffffff1673ffffffffffffffffffffffffffffffffffffffff1663a9059cbb3383602001516040518363ffffffff1660e01b81526004016109dc9291906125d1565b602060405180830381600087803b1580156109f657600080fd5b505af1158015610a0a573d6000803e3d6000fd5b505050506040513d601f19601f82011682018060405250810190610a2e91906127ee565b610a3757600080fd5b505050565b610a4582610661565b610a4e816118be565b610a5883836118ec565b505050565b610a65611920565b73ffffffffffffffffffffffffffffffffffffffff168173ffffffffffffffffffffffffffffffffffffffff1614610ad2576040517f08c379a0000000000000000000000000000000000000000000000000000000008152600401610ac99061288d565b60405180910390fd5b610adc8282611928565b5050565b60025481565b60066020528060005260406000206000915090508060000154908060010154905082565b7f97667070c54ef182b0f5858b034beac1b6f3089aa2d3188bb1e8929f4fa9b929610b34816118be565b6000600460008481526020019081526020016000206040518060800160405290816000820160009054906101000a900473ffffffffffffffffffffffffffffffffffffffff1673ffffffffffffffffffffffffffffffffffffffff1673ffffffffffffffffffffffffffffffffffffffff16815260200160018201548152602001600282015481526020016003820154815250509050600073ffffffffffffffffffffffffffffffffffffffff16816000015173ffffffffffffffffffffffffffffffffffffffff161415610c3e576040517f08c379a0000000000000000000000000000000000000000000000000000000008152600401610c3590612657565b60405180910390fd5b610c938360056000846000015173ffffffffffffffffffffffffffffffffffffffff1673ffffffffffffffffffffffffffffffffffffffff1681526020019081526020016000206118d290919063ffffffff16565b5060046000848152602001908152602001600020600080820160006101000a81549073ffffffffffffffffffffffffffffffffffffffff02191690556001820160009055600282016000905560038201600090555050827f9c6393f251205f9e03559951cab4c9ae71767b6174f77944a5b0c2fa51fbda9f60405160405180910390a2600360009054906101000a900473ffffffffffffffffffffffffffffffffffffffff1673ffffffffffffffffffffffffffffffffffffffff1663a9059cbb3383602001516040518363ffffffff1660e01b8152600401610d779291906125d1565b602060405180830381600087803b158015610d9157600080fd5b505af1158015610da5573d6000803e3d6000fd5b505050506040513d601f19601f82011682018060405250810190610dc991906127ee565b610dd257600080fd5b505050565b6060610e20600560008473ffffffffffffffffffffffffffffffffffffffff1673ffffffffffffffffffffffffffffffffffffffff16815260200190815260200160002061195c565b9050919050565b6000610e4e826001600086815260200190815260200160002061197d90919063ffffffff16565b905092915050565b600080600084815260200190815260200160002060000160008373ffffffffffffffffffffffffffffffffffffffff1673ffffffffffffffffffffffffffffffffffffffff16815260200190815260200160002060009054906101000a900460ff16905092915050565b6000801b81565b60046020528060005260406000206000915090508060000160009054906101000a900473ffffffffffffffffffffffffffffffffffffffff16908060010154908060020154908060030154905084565b610f417f97667070c54ef182b0f5858b034beac1b6f3089aa2d3188bb1e8929f4fa9b9298261169e565b50565b600080600460008481526020019081526020016000206040518060800160405290816000820160009054906101000a900473ffffffffffffffffffffffffffffffffffffffff1673ffffffffffffffffffffffffffffffffffffffff1673ffffffffffffffffffffffffffffffffffffffff16815260200160018201548152602001600282015481526020016003820154815250509050806060015142610feb91906126a6565b6301e133806006600084604001518152602001908152602001600020600101546103e8846020015161101d91906128dc565b611027919061290d565b61103191906128dc565b61103b919061290d565b915050919050565b7f241ecf16d79d0f8dbfb92cbc07fe17840425976cf0667f022fe9877caa831b0861106d816118be565b60006006600085815260200190815260200160002060010154146110c6576040517f08c379a00000000000000000000000000000000000000000000000000000000081526004016110bd906129d9565b60405180910390fd5b816006600085815260200190815260200160002081816110e69190612afd565b905050505050565b600061110b60016000848152602001908152602001600020611997565b9050919050565b7f97667070c54ef182b0f5858b034beac1b6f3089aa2d3188bb1e8929f4fa9b92961113c816118be565b6000805b848490508110156115b757600073ffffffffffffffffffffffffffffffffffffffff1685858381811061117657611175612b0b565b5b905060a0020160200160000160208101906111919190612209565b73ffffffffffffffffffffffffffffffffffffffff1614156111e8576040517f08c379a00000000000000000000000000000000000000000000000000000000081526004016111df90612bac565b60405180910390fd5b60008585838181106111fd576111fc612b0b565b5b905060a00201602001602001351161124a576040517f08c379a000000000000000000000000000000000000000000000000000000000815260040161124190612c18565b60405180910390fd5b60006006600087878581811061126357611262612b0b565b5b905060a002016020016040013581526020019081526020016000206001015414156112c3576040517f08c379a00000000000000000000000000000000000000000000000000000000081526004016112ba90612c84565b60405180910390fd5b600073ffffffffffffffffffffffffffffffffffffffff16600460008787858181106112f2576112f1612b0b565b5b905060a0020160000135815260200190815260200160002060000160009054906101000a900473ffffffffffffffffffffffffffffffffffffffff1673ffffffffffffffffffffffffffffffffffffffff1614611384576040517f08c379a000000000000000000000000000000000000000000000000000000000815260040161137b90612cf0565b60405180910390fd5b84848281811061139757611396612b0b565b5b905060a0020160200160200135826113af919061276c565b91508484828181106113c4576113c3612b0b565b5b905060a00201602001600460008787858181106113e4576113e3612b0b565b5b905060a0020160000135815260200190815260200160002081816114089190612e57565b90505060006005600087878581811061142457611423612b0b565b5b905060a00201602001600001602081019061143f9190612209565b73ffffffffffffffffffffffffffffffffffffffff1673ffffffffffffffffffffffffffffffffffffffff16815260200190815260200160002090506114aa86868481811061149157611490612b0b565b5b905060a0020160000135826119ac90919063ffffffff16565b508585838181106114be576114bd612b0b565b5b905060a00201602001604001358686848181106114de576114dd612b0b565b5b905060a0020160200160000160208101906114f99190612209565b73ffffffffffffffffffffffffffffffffffffffff1687878581811061152257611521612b0b565b5b905060a00201600001357f4d7103586291e7db98764ab531b10c22c28626863103f118d9a46f48f83ea17c8989878181106115605761155f612b0b565b5b905060a00201602001602001358a8a888181106115805761157f612b0b565b5b905060a002016020016060013560405161159b929190612303565b60405180910390a45080806115af90612e65565b915050611140565b50600360009054906101000a900473ffffffffffffffffffffffffffffffffffffffff1673ffffffffffffffffffffffffffffffffffffffff166323b872dd3330846040518463ffffffff1660e01b815260040161161793929190612eae565b602060405180830381600087803b15801561163157600080fd5b505af1158015611645573d6000803e3d6000fd5b505050506040513d601f19601f8201168201806040525081019061166991906127ee565b61167257600080fd5b50505050565b600360009054906101000a900473ffffffffffffffffffffffffffffffffffffffff1681565b6116a782610661565b6116b0816118be565b6116ba8383611928565b505050565b6116e97f241ecf16d79d0f8dbfb92cbc07fe17840425976cf0667f022fe9877caa831b088261169e565b50565b7f241ecf16d79d0f8dbfb92cbc07fe17840425976cf0667f022fe9877caa831b0881565b7f97667070c54ef182b0f5858b034beac1b6f3089aa2d3188bb1e8929f4fa9b92981565b61173e8282610e56565b61181057600160008084815260200190815260200160002060000160008373ffffffffffffffffffffffffffffffffffffffff1673ffffffffffffffffffffffffffffffffffffffff16815260200190815260200160002060006101000a81548160ff0219169083151502179055506117b5611920565b73ffffffffffffffffffffffffffffffffffffffff168173ffffffffffffffffffffffffffffffffffffffff16837f2f8788117e7eff1d82e926ec794901d17c78024a50270940304540a733656f0d60405160405180910390a45b5050565b600061183c836000018373ffffffffffffffffffffffffffffffffffffffff1660001b6119c6565b905092915050565b60007f7965db0b000000000000000000000000000000000000000000000000000000007bffffffffffffffffffffffffffffffffffffffffffffffffffffffff1916827bffffffffffffffffffffffffffffffffffffffffffffffffffffffff191614806118b757506118b682611a36565b5b9050919050565b6118cf816118ca611920565b611aa0565b50565b60006118e4836000018360001b611b3d565b905092915050565b6118f68282611734565b61191b816001600085815260200190815260200160002061181490919063ffffffff16565b505050565b600033905090565b6119328282611c51565b6119578160016000858152602001908152602001600020611d3290919063ffffffff16565b505050565b6060600061196c83600001611d62565b905060608190508092505050919050565b600061198c8360000183611dbe565b60001c905092915050565b60006119a582600001611de9565b9050919050565b60006119be836000018360001b6119c6565b905092915050565b60006119d28383611dfa565b611a2b578260000182908060018154018082558091505060019003906000526020600020016000909190919091505582600001805490508360010160008481526020019081526020016000208190555060019050611a30565b600090505b92915050565b60007f01ffc9a7000000000000000000000000000000000000000000000000000000007bffffffffffffffffffffffffffffffffffffffffffffffffffffffff1916827bffffffffffffffffffffffffffffffffffffffffffffffffffffffff1916149050919050565b611aaa8282610e56565b611b3957611acf8173ffffffffffffffffffffffffffffffffffffffff166014611e1d565b611add8360001c6020611e1d565b604051602001611aee929190612ff7565b6040516020818303038152906040526040517f08c379a0000000000000000000000000000000000000000000000000000000008152600401611b30919061307b565b60405180910390fd5b5050565b60008083600101600084815260200190815260200160002054905060008114611c45576000600182611b6f91906126a6565b9050600060018660000180549050611b8791906126a6565b9050818114611bf6576000866000018281548110611ba857611ba7612b0b565b5b9060005260206000200154905080876000018481548110611bcc57611bcb612b0b565b5b90600052602060002001819055508387600101600083815260200190815260200160002081905550505b85600001805480611c0a57611c0961309d565b5b600190038181906000526020600020016000905590558560010160008681526020019081526020016000206000905560019350505050611c4b565b60009150505b92915050565b611c5b8282610e56565b15611d2e57600080600084815260200190815260200160002060000160008373ffffffffffffffffffffffffffffffffffffffff1673ffffffffffffffffffffffffffffffffffffffff16815260200190815260200160002060006101000a81548160ff021916908315150217905550611cd3611920565b73ffffffffffffffffffffffffffffffffffffffff168173ffffffffffffffffffffffffffffffffffffffff16837ff6391f5c32d9c69d2a47ea670b442974b53935d1edc7fd64eb21e047a839171b60405160405180910390a45b5050565b6000611d5a836000018373ffffffffffffffffffffffffffffffffffffffff1660001b611b3d565b905092915050565b606081600001805480602002602001604051908101604052809291908181526020018280548015611db257602002820191906000526020600020905b815481526020019060010190808311611d9e575b50505050509050919050565b6000826000018281548110611dd657611dd5612b0b565b5b9060005260206000200154905092915050565b600081600001805490509050919050565b600080836001016000848152602001908152602001600020541415905092915050565b606060006002836002611e30919061290d565b611e3a919061276c565b67ffffffffffffffff811115611e5357611e526130cc565b5b6040519080825280601f01601f191660200182016040528015611e855781602001600182028036833780820191505090505b5090507f300000000000000000000000000000000000000000000000000000000000000081600081518110611ebd57611ebc612b0b565b5b60200101907effffffffffffffffffffffffffffffffffffffffffffffffffffffffffffff1916908160001a9053507f780000000000000000000000000000000000000000000000000000000000000081600181518110611f2157611f20612b0b565b5b60200101907effffffffffffffffffffffffffffffffffffffffffffffffffffffffffffff1916908160001a90535060006001846002611f61919061290d565b611f6b919061276c565b90505b600181111561200b577f3031323334353637383961626364656600000000000000000000000000000000600f861660108110611fad57611fac612b0b565b5b1a60f81b828281518110611fc457611fc3612b0b565b5b60200101907effffffffffffffffffffffffffffffffffffffffffffffffffffffffffffff1916908160001a905350600485901c945080612004906130fb565b9050611f6e565b506000841461204f576040517f08c379a000000000000000000000000000000000000000000000000000000000815260040161204690613171565b60405180910390fd5b8091505092915050565b600080fd5b600080fd5b60007fffffffff0000000000000000000000000000000000000000000000000000000082169050919050565b61209881612063565b81146120a357600080fd5b50565b6000813590506120b58161208f565b92915050565b6000602082840312156120d1576120d0612059565b5b60006120df848285016120a6565b91505092915050565b60008115159050919050565b6120fd816120e8565b82525050565b600060208201905061211860008301846120f4565b92915050565b6000819050919050565b6121318161211e565b811461213c57600080fd5b50565b60008135905061214e81612128565b92915050565b60006020828403121561216a57612169612059565b5b60006121788482850161213f565b91505092915050565b61218a8161211e565b82525050565b60006020820190506121a56000830184612181565b92915050565b600073ffffffffffffffffffffffffffffffffffffffff82169050919050565b60006121d6826121ab565b9050919050565b6121e6816121cb565b81146121f157600080fd5b50565b600081359050612203816121dd565b92915050565b60006020828403121561221f5761221e612059565b5b600061222d848285016121f4565b91505092915050565b6000819050919050565b61224981612236565b811461225457600080fd5b50565b60008135905061226681612240565b92915050565b60006020828403121561228257612281612059565b5b600061229084828501612257565b91505092915050565b600080604083850312156122b0576122af612059565b5b60006122be8582860161213f565b92505060206122cf858286016121f4565b9150509250929050565b6122e281612236565b82525050565b60006020820190506122fd60008301846122d9565b92915050565b600060408201905061231860008301856122d9565b61232560208301846122d9565b9392505050565b600081519050919050565b600082825260208201905092915050565b6000819050602082019050919050565b61236181612236565b82525050565b60006123738383612358565b60208301905092915050565b6000602082019050919050565b60006123978261232c565b6123a18185612337565b93506123ac83612348565b8060005b838110156123dd5781516123c48882612367565b97506123cf8361237f565b9250506001810190506123b0565b5085935050505092915050565b60006020820190508181036000830152612404818461238c565b905092915050565b6000806040838503121561242357612422612059565b5b60006124318582860161213f565b925050602061244285828601612257565b9150509250929050565b612455816121cb565b82525050565b6000602082019050612470600083018461244c565b92915050565b600060808201905061248b600083018761244c565b61249860208301866122d9565b6124a560408301856122d9565b6124b260608301846122d9565b95945050505050565b600080fd5b6000604082840312156124d6576124d56124bb565b5b81905092915050565b600080606083850312156124f6576124f5612059565b5b600061250485828601612257565b9250506020612515858286016124c0565b9150509250929050565b600080fd5b600080fd5b600080fd5b60008083601f8401126125445761254361251f565b5b8235905067ffffffffffffffff81111561256157612560612524565b5b6020830191508360a082028301111561257d5761257c612529565b5b9250929050565b6000806020838503121561259b5761259a612059565b5b600083013567ffffffffffffffff8111156125b9576125b861205e565b5b6125c58582860161252e565b92509250509250929050565b60006040820190506125e6600083018561244c565b6125f360208301846122d9565b9392505050565b600082825260208201905092915050565b7f4572726f723a204465706f736974496420646f6573206e6f7420657869737400600082015250565b6000612641601f836125fa565b915061264c8261260b565b602082019050919050565b6000602082019050818103600083015261267081612634565b9050919050565b7f4e487b7100000000000000000000000000000000000000000000000000000000600052601160045260246000fd5b60006126b182612236565b91506126bc83612236565b9250828210156126cf576126ce612677565b5b828203905092915050565b7f4572726f723a204d696e696d756d206c6f636b75702074696d6520686173206e60008201527f6f74206265656e206d6574000000000000000000000000000000000000000000602082015250565b6000612736602b836125fa565b9150612741826126da565b604082019050919050565b6000602082019050818103600083015261276581612729565b9050919050565b600061277782612236565b915061278283612236565b9250827fffffffffffffffffffffffffffffffffffffffffffffffffffffffffffffffff038211156127b7576127b6612677565b5b828201905092915050565b6127cb816120e8565b81146127d657600080fd5b50565b6000815190506127e8816127c2565b92915050565b60006020828403121561280457612803612059565b5b6000612812848285016127d9565b91505092915050565b7f416363657373436f6e74726f6c3a2063616e206f6e6c792072656e6f756e636560008201527f20726f6c657320666f722073656c660000000000000000000000000000000000602082015250565b6000612877602f836125fa565b91506128828261281b565b604082019050919050565b600060208201905081810360008301526128a68161286a565b9050919050565b7f4e487b7100000000000000000000000000000000000000000000000000000000600052601260045260246000fd5b60006128e782612236565b91506128f283612236565b925082612902576129016128ad565b5b828204905092915050565b600061291882612236565b915061292383612236565b9250817fffffffffffffffffffffffffffffffffffffffffffffffffffffffffffffffff048311821515161561295c5761295b612677565b5b828202905092915050565b7f4572726f723a205969656c64436f6e66696720666f7220696420616c7265616460008201527f7920636f6e666967757265640000000000000000000000000000000000000000602082015250565b60006129c3602c836125fa565b91506129ce82612967565b604082019050919050565b600060208201905081810360008301526129f2816129b6565b9050919050565b60008135612a0681612240565b80915050919050565b60008160001b9050919050565b60007fffffffffffffffffffffffffffffffffffffffffffffffffffffffffffffffff612a4884612a0f565b9350801983169250808416831791505092915050565b6000819050919050565b6000612a83612a7e612a7984612236565b612a5e565b612236565b9050919050565b6000819050919050565b612a9d82612a68565b612ab0612aa982612a8a565b8354612a1c565b8255505050565b600081016000830180612ac9816129f9565b9050612ad58184612a94565b505050600181016020830180612aea816129f9565b9050612af68184612a94565b5050505050565b612b078282612ab7565b5050565b7f4e487b7100000000000000000000000000000000000000000000000000000000600052603260045260246000fd5b7f4572726f723a20416464726573732063616e6e6f74206265207a65726f20616460008201527f6472657373000000000000000000000000000000000000000000000000000000602082015250565b6000612b966025836125fa565b9150612ba182612b3a565b604082019050919050565b60006020820190508181036000830152612bc581612b89565b9050919050565b7f4572726f723a20496e76616c696420616d6f756e740000000000000000000000600082015250565b6000612c026015836125fa565b9150612c0d82612bcc565b602082019050919050565b60006020820190508181036000830152612c3181612bf5565b9050919050565b7f4572726f723a20696e76616c6964206c6f636b75700000000000000000000000600082015250565b6000612c6e6015836125fa565b9150612c7982612c38565b602082019050919050565b60006020820190508181036000830152612c9d81612c61565b9050919050565b7f4572726f723a204465706f736974496420616c72656164792065786973747300600082015250565b6000612cda601f836125fa565b9150612ce582612ca4565b602082019050919050565b60006020820190508181036000830152612d0981612ccd565b9050919050565b60008135612d1d816121dd565b80915050919050565b600073ffffffffffffffffffffffffffffffffffffffff612d4684612a0f565b9350801983169250808416831791505092915050565b6000612d77612d72612d6d846121ab565b612a5e565b6121ab565b9050919050565b6000612d8982612d5c565b9050919050565b6000612d9b82612d7e565b9050919050565b6000819050919050565b612db582612d90565b612dc8612dc182612da2565b8354612d26565b8255505050565b600081016000830180612de181612d10565b9050612ded8184612dac565b505050600181016020830180612e02816129f9565b9050612e0e8184612a94565b505050600281016040830180612e23816129f9565b9050612e2f8184612a94565b505050600381016060830180612e44816129f9565b9050612e508184612a94565b5050505050565b612e618282612dcf565b5050565b6000612e7082612236565b91507fffffffffffffffffffffffffffffffffffffffffffffffffffffffffffffffff821415612ea357612ea2612677565b5b600182019050919050565b6000606082019050612ec3600083018661244c565b612ed0602083018561244c565b612edd60408301846122d9565b949350505050565b600081905092915050565b7f416363657373436f6e74726f6c3a206163636f756e7420000000000000000000600082015250565b6000612f26601783612ee5565b9150612f3182612ef0565b601782019050919050565b600081519050919050565b60005b83811015612f65578082015181840152602081019050612f4a565b83811115612f74576000848401525b50505050565b6000612f8582612f3c565b612f8f8185612ee5565b9350612f9f818560208601612f47565b80840191505092915050565b7f206973206d697373696e6720726f6c6520000000000000000000000000000000600082015250565b6000612fe1601183612ee5565b9150612fec82612fab565b601182019050919050565b600061300282612f19565b915061300e8285612f7a565b915061301982612fd4565b91506130258284612f7a565b91508190509392505050565b6000601f19601f8301169050919050565b600061304d82612f3c565b61305781856125fa565b9350613067818560208601612f47565b61307081613031565b840191505092915050565b600060208201905081810360008301526130958184613042565b905092915050565b7f4e487b7100000000000000000000000000000000000000000000000000000000600052603160045260246000fd5b7f4e487b7100000000000000000000000000000000000000000000000000000000600052604160045260246000fd5b600061310682612236565b9150600082141561311a57613119612677565b5b600182039050919050565b7f537472696e67733a20686578206c656e67746820696e73756666696369656e74600082015250565b600061315b6020836125fa565b915061316682613125565b602082019050919050565b6000602082019050818103600083015261318a8161314e565b905091905056fea26469706673582212202d40d1c9cbb5bdf52ef16bf22ea62fdfbbe45d3f7ace4a3f4b338c4d9a0dac3964736f6c63430008090033",
  "linkReferences": {},
  "deployedLinkReferences": {}
}